{
  "contractName": "BrandonToken",
  "abi": [
    {
      "inputs": [
        {
          "internalType": "string",
          "name": "_name",
          "type": "string"
        },
        {
          "internalType": "string",
          "name": "_symbol",
          "type": "string"
        },
        {
          "internalType": "address",
          "name": "signer",
          "type": "address"
        },
        {
          "internalType": "string",
          "name": "contractURI",
          "type": "string"
        },
        {
          "internalType": "string",
          "name": "tokenURIPrefix",
          "type": "string"
        }
      ],
      "payable": false,
      "stateMutability": "nonpayable",
      "type": "constructor"
    },
    {
      "anonymous": false,
      "inputs": [
        {
          "indexed": true,
          "internalType": "address",
          "name": "_owner",
          "type": "address"
        },
        {
          "indexed": true,
          "internalType": "address",
          "name": "_operator",
          "type": "address"
        },
        {
          "indexed": false,
          "internalType": "bool",
          "name": "_approved",
          "type": "bool"
        }
      ],
      "name": "ApprovalForAll",
      "type": "event"
    },
    {
      "anonymous": false,
      "inputs": [
        {
          "indexed": true,
          "internalType": "address",
          "name": "previousOwner",
          "type": "address"
        },
        {
          "indexed": true,
          "internalType": "address",
          "name": "newOwner",
          "type": "address"
        }
      ],
      "name": "OwnershipTransferred",
      "type": "event"
    },
    {
      "anonymous": false,
      "inputs": [
        {
          "indexed": false,
          "internalType": "uint256",
          "name": "tokenId",
          "type": "uint256"
        },
        {
          "indexed": false,
          "internalType": "address[]",
          "name": "recipients",
          "type": "address[]"
        },
        {
          "indexed": false,
          "internalType": "uint256[]",
          "name": "bps",
          "type": "uint256[]"
        }
      ],
      "name": "SecondarySaleFees",
      "type": "event"
    },
    {
      "anonymous": false,
      "inputs": [
        {
          "indexed": true,
          "internalType": "address",
          "name": "account",
          "type": "address"
        }
      ],
      "name": "SignerAdded",
      "type": "event"
    },
    {
      "anonymous": false,
      "inputs": [
        {
          "indexed": true,
          "internalType": "address",
          "name": "account",
          "type": "address"
        }
      ],
      "name": "SignerRemoved",
      "type": "event"
    },
    {
      "anonymous": false,
      "inputs": [
        {
          "indexed": true,
          "internalType": "address",
          "name": "_operator",
          "type": "address"
        },
        {
          "indexed": true,
          "internalType": "address",
          "name": "_from",
          "type": "address"
        },
        {
          "indexed": true,
          "internalType": "address",
          "name": "_to",
          "type": "address"
        },
        {
          "indexed": false,
          "internalType": "uint256[]",
          "name": "_ids",
          "type": "uint256[]"
        },
        {
          "indexed": false,
          "internalType": "uint256[]",
          "name": "_values",
          "type": "uint256[]"
        }
      ],
      "name": "TransferBatch",
      "type": "event"
    },
    {
      "anonymous": false,
      "inputs": [
        {
          "indexed": true,
          "internalType": "address",
          "name": "_operator",
          "type": "address"
        },
        {
          "indexed": true,
          "internalType": "address",
          "name": "_from",
          "type": "address"
        },
        {
          "indexed": true,
          "internalType": "address",
          "name": "_to",
          "type": "address"
        },
        {
          "indexed": false,
          "internalType": "uint256",
          "name": "_id",
          "type": "uint256"
        },
        {
          "indexed": false,
          "internalType": "uint256",
          "name": "_value",
          "type": "uint256"
        }
      ],
      "name": "TransferSingle",
      "type": "event"
    },
    {
      "anonymous": false,
      "inputs": [
        {
          "indexed": false,
          "internalType": "string",
          "name": "_value",
          "type": "string"
        },
        {
          "indexed": true,
          "internalType": "uint256",
          "name": "_id",
          "type": "uint256"
        }
      ],
      "name": "URI",
      "type": "event"
    },
    {
      "constant": true,
      "inputs": [
        {
          "internalType": "address",
          "name": "_owner",
          "type": "address"
        },
        {
          "internalType": "uint256",
          "name": "_id",
          "type": "uint256"
        }
      ],
      "name": "balanceOf",
      "outputs": [
        {
          "internalType": "uint256",
          "name": "",
          "type": "uint256"
        }
      ],
      "payable": false,
      "stateMutability": "view",
      "type": "function"
    },
    {
      "constant": true,
      "inputs": [
        {
          "internalType": "address[]",
          "name": "_owners",
          "type": "address[]"
        },
        {
          "internalType": "uint256[]",
          "name": "_ids",
          "type": "uint256[]"
        }
      ],
      "name": "balanceOfBatch",
      "outputs": [
        {
          "internalType": "uint256[]",
          "name": "",
          "type": "uint256[]"
        }
      ],
      "payable": false,
      "stateMutability": "view",
      "type": "function"
    },
    {
      "constant": false,
      "inputs": [
        {
          "internalType": "address",
          "name": "_owner",
          "type": "address"
        },
        {
          "internalType": "uint256",
          "name": "_id",
          "type": "uint256"
        },
        {
          "internalType": "uint256",
          "name": "_value",
          "type": "uint256"
        }
      ],
      "name": "burn",
      "outputs": [],
      "payable": false,
      "stateMutability": "nonpayable",
      "type": "function"
    },
    {
      "constant": true,
      "inputs": [],
      "name": "contractURI",
      "outputs": [
        {
          "internalType": "string",
          "name": "",
          "type": "string"
        }
      ],
      "payable": false,
      "stateMutability": "view",
      "type": "function"
    },
    {
      "constant": true,
      "inputs": [
        {
          "internalType": "uint256",
          "name": "",
          "type": "uint256"
        }
      ],
      "name": "creators",
      "outputs": [
        {
          "internalType": "address",
          "name": "",
          "type": "address"
        }
      ],
      "payable": false,
      "stateMutability": "view",
      "type": "function"
    },
    {
      "constant": true,
      "inputs": [
        {
          "internalType": "uint256",
          "name": "",
          "type": "uint256"
        },
        {
          "internalType": "uint256",
          "name": "",
          "type": "uint256"
        }
      ],
      "name": "fees",
      "outputs": [
        {
          "internalType": "address payable",
          "name": "recipient",
          "type": "address"
        },
        {
          "internalType": "uint256",
          "name": "value",
          "type": "uint256"
        }
      ],
      "payable": false,
      "stateMutability": "view",
      "type": "function"
    },
    {
      "constant": true,
      "inputs": [
        {
          "internalType": "uint256",
          "name": "id",
          "type": "uint256"
        }
      ],
      "name": "getFeeBps",
      "outputs": [
        {
          "internalType": "uint256[]",
          "name": "",
          "type": "uint256[]"
        }
      ],
      "payable": false,
      "stateMutability": "view",
      "type": "function"
    },
    {
      "constant": true,
      "inputs": [
        {
          "internalType": "uint256",
          "name": "id",
          "type": "uint256"
        }
      ],
      "name": "getFeeRecipients",
      "outputs": [
        {
          "internalType": "address payable[]",
          "name": "",
          "type": "address[]"
        }
      ],
      "payable": false,
      "stateMutability": "view",
      "type": "function"
    },
    {
      "constant": true,
      "inputs": [
        {
          "internalType": "address",
          "name": "_owner",
          "type": "address"
        },
        {
          "internalType": "address",
          "name": "_operator",
          "type": "address"
        }
      ],
      "name": "isApprovedForAll",
      "outputs": [
        {
          "internalType": "bool",
          "name": "",
          "type": "bool"
        }
      ],
      "payable": false,
      "stateMutability": "view",
      "type": "function"
    },
    {
      "constant": true,
      "inputs": [],
      "name": "isOwner",
      "outputs": [
        {
          "internalType": "bool",
          "name": "",
          "type": "bool"
        }
      ],
      "payable": false,
      "stateMutability": "view",
      "type": "function"
    },
    {
      "constant": true,
      "inputs": [
        {
          "internalType": "address",
          "name": "account",
          "type": "address"
        }
      ],
      "name": "isSigner",
      "outputs": [
        {
          "internalType": "bool",
          "name": "",
          "type": "bool"
        }
      ],
      "payable": false,
      "stateMutability": "view",
      "type": "function"
    },
    {
      "constant": true,
      "inputs": [],
      "name": "name",
      "outputs": [
        {
          "internalType": "string",
          "name": "",
          "type": "string"
        }
      ],
      "payable": false,
      "stateMutability": "view",
      "type": "function"
    },
    {
      "constant": true,
      "inputs": [],
      "name": "owner",
      "outputs": [
        {
          "internalType": "address",
          "name": "",
          "type": "address"
        }
      ],
      "payable": false,
      "stateMutability": "view",
      "type": "function"
    },
    {
      "constant": false,
      "inputs": [],
      "name": "renounceOwnership",
      "outputs": [],
      "payable": false,
      "stateMutability": "nonpayable",
      "type": "function"
    },
    {
      "constant": false,
      "inputs": [],
      "name": "renounceSigner",
      "outputs": [],
      "payable": false,
      "stateMutability": "nonpayable",
      "type": "function"
    },
    {
      "constant": false,
      "inputs": [
        {
          "internalType": "address",
          "name": "_from",
          "type": "address"
        },
        {
          "internalType": "address",
          "name": "_to",
          "type": "address"
        },
        {
          "internalType": "uint256[]",
          "name": "_ids",
          "type": "uint256[]"
        },
        {
          "internalType": "uint256[]",
          "name": "_values",
          "type": "uint256[]"
        },
        {
          "internalType": "bytes",
          "name": "_data",
          "type": "bytes"
        }
      ],
      "name": "safeBatchTransferFrom",
      "outputs": [],
      "payable": false,
      "stateMutability": "nonpayable",
      "type": "function"
    },
    {
      "constant": false,
      "inputs": [
        {
          "internalType": "address",
          "name": "_from",
          "type": "address"
        },
        {
          "internalType": "address",
          "name": "_to",
          "type": "address"
        },
        {
          "internalType": "uint256",
          "name": "_id",
          "type": "uint256"
        },
        {
          "internalType": "uint256",
          "name": "_value",
          "type": "uint256"
        },
        {
          "internalType": "bytes",
          "name": "_data",
          "type": "bytes"
        }
      ],
      "name": "safeTransferFrom",
      "outputs": [],
      "payable": false,
      "stateMutability": "nonpayable",
      "type": "function"
    },
    {
      "constant": false,
      "inputs": [
        {
          "internalType": "address",
          "name": "_operator",
          "type": "address"
        },
        {
          "internalType": "bool",
          "name": "_approved",
          "type": "bool"
        }
      ],
      "name": "setApprovalForAll",
      "outputs": [],
      "payable": false,
      "stateMutability": "nonpayable",
      "type": "function"
    },
    {
      "constant": false,
      "inputs": [
        {
          "internalType": "string",
          "name": "contractURI",
          "type": "string"
        }
      ],
      "name": "setContractURI",
      "outputs": [],
      "payable": false,
      "stateMutability": "nonpayable",
      "type": "function"
    },
    {
      "constant": false,
      "inputs": [
        {
          "internalType": "string",
          "name": "tokenURIPrefix",
          "type": "string"
        }
      ],
      "name": "setTokenURIPrefix",
      "outputs": [],
      "payable": false,
      "stateMutability": "nonpayable",
      "type": "function"
    },
    {
      "constant": true,
      "inputs": [
        {
          "internalType": "bytes4",
          "name": "interfaceId",
          "type": "bytes4"
        }
      ],
      "name": "supportsInterface",
      "outputs": [
        {
          "internalType": "bool",
          "name": "",
          "type": "bool"
        }
      ],
      "payable": false,
      "stateMutability": "view",
      "type": "function"
    },
    {
      "constant": true,
      "inputs": [],
      "name": "symbol",
      "outputs": [
        {
          "internalType": "string",
          "name": "",
          "type": "string"
        }
      ],
      "payable": false,
      "stateMutability": "view",
      "type": "function"
    },
    {
      "constant": true,
      "inputs": [],
      "name": "tokenURIPrefix",
      "outputs": [
        {
          "internalType": "string",
          "name": "",
          "type": "string"
        }
      ],
      "payable": false,
      "stateMutability": "view",
      "type": "function"
    },
    {
      "constant": false,
      "inputs": [
        {
          "internalType": "address",
          "name": "newOwner",
          "type": "address"
        }
      ],
      "name": "transferOwnership",
      "outputs": [],
      "payable": false,
      "stateMutability": "nonpayable",
      "type": "function"
    },
    {
      "constant": true,
      "inputs": [
        {
          "internalType": "uint256",
          "name": "_id",
          "type": "uint256"
        }
      ],
      "name": "uri",
      "outputs": [
        {
          "internalType": "string",
          "name": "",
          "type": "string"
        }
      ],
      "payable": false,
      "stateMutability": "view",
      "type": "function"
    },
    {
      "constant": false,
      "inputs": [
        {
          "internalType": "address",
          "name": "account",
          "type": "address"
        }
      ],
      "name": "addSigner",
      "outputs": [],
      "payable": false,
      "stateMutability": "nonpayable",
      "type": "function"
    },
    {
      "constant": false,
      "inputs": [
        {
          "internalType": "address",
          "name": "account",
          "type": "address"
        }
      ],
      "name": "removeSigner",
      "outputs": [],
      "payable": false,
      "stateMutability": "nonpayable",
      "type": "function"
    },
    {
      "constant": false,
      "inputs": [
        {
          "internalType": "uint256",
          "name": "id",
          "type": "uint256"
        },
        {
          "internalType": "uint8",
          "name": "v",
          "type": "uint8"
        },
        {
          "internalType": "bytes32",
          "name": "r",
          "type": "bytes32"
        },
        {
          "internalType": "bytes32",
          "name": "s",
          "type": "bytes32"
        },
        {
          "components": [
            {
              "internalType": "address payable",
              "name": "recipient",
              "type": "address"
            },
            {
              "internalType": "uint256",
              "name": "value",
              "type": "uint256"
            }
          ],
          "internalType": "struct ERC1155Base.Fee[]",
          "name": "fees",
          "type": "tuple[]"
        },
        {
          "internalType": "uint256",
          "name": "supply",
          "type": "uint256"
        },
        {
          "internalType": "string",
          "name": "uri",
          "type": "string"
        }
      ],
      "name": "mint",
      "outputs": [],
      "payable": false,
      "stateMutability": "nonpayable",
      "type": "function"
    }
  ],
  "bytecode": "0x60806040523480156200001157600080fd5b50604051620051e5380380620051e58339818101604052620000379190810190620005f9565b8181818180620000546301ffc9a760e01b6200021860201b60201c565b6200006c63b779958460e01b6200021860201b60201c565b60006200007e620002f060201b60201c565b905080600160006101000a81548173ffffffffffffffffffffffffffffffffffffffff021916908373ffffffffffffffffffffffffffffffffffffffff1602179055508073ffffffffffffffffffffffffffffffffffffffff16600073ffffffffffffffffffffffffffffffffffffffff167f8be0079c531659141344cd1fd0a4f28419497f9722a3daafe3b4186f6b6457e060405160405180910390a3506200013d62000131620002f060201b60201c565b620002f860201b60201c565b806003908051906020019062000155929190620004d7565b505050806005908051906020019062000170929190620004d7565b506200018963e8a3d48560e01b6200021860201b60201c565b50620001a263d9b67a2660e01b6200021860201b60201c565b505084600a9080519060200190620001bc929190620004d7565b5083600b9080519060200190620001d5929190620004d7565b50620001e783620002f860201b60201c565b6200020d604051620001f9906200080d565b60405180910390206200021860201b60201c565b505050505062000985565b63ffffffff60e01b817bffffffffffffffffffffffffffffffffffffffffffffffffffffffff1916141562000284576040517f08c379a00000000000000000000000000000000000000000000000000000000081526004016200027b9062000846565b60405180910390fd5b6001600080837bffffffffffffffffffffffffffffffffffffffffffffffffffffffff19167bffffffffffffffffffffffffffffffffffffffffffffffffffffffff1916815260200190815260200160002060006101000a81548160ff02191690831515021790555050565b600033905090565b620003138160026200035960201b62002d591790919060201c565b8073ffffffffffffffffffffffffffffffffffffffff167f47d1c22a25bb3a5d4e481b9b1e6944c2eade3181a0a20b495ed61d35b5323f2460405160405180910390a250565b6200036b82826200040c60201b60201c565b15620003ae576040517f08c379a0000000000000000000000000000000000000000000000000000000008152600401620003a59062000824565b60405180910390fd5b60018260000160008373ffffffffffffffffffffffffffffffffffffffff1673ffffffffffffffffffffffffffffffffffffffff16815260200190815260200160002060006101000a81548160ff0219169083151502179055505050565b60008073ffffffffffffffffffffffffffffffffffffffff168273ffffffffffffffffffffffffffffffffffffffff16141562000480576040517f08c379a0000000000000000000000000000000000000000000000000000000008152600401620004779062000868565b60405180910390fd5b8260000160008373ffffffffffffffffffffffffffffffffffffffff1673ffffffffffffffffffffffffffffffffffffffff16815260200190815260200160002060009054906101000a900460ff16905092915050565b828054600181600116156101000203166002900490600052602060002090601f016020900481019282601f106200051a57805160ff19168380011785556200054b565b828001600101855582156200054b579182015b828111156200054a5782518255916020019190600101906200052d565b5b5090506200055a91906200055e565b5090565b6200058391905b808211156200057f57600081600090555060010162000565565b5090565b90565b60008151905062000597816200096b565b92915050565b600082601f830112620005af57600080fd5b8151620005c6620005c082620008b8565b6200088a565b91508082526020830160208301858383011115620005e357600080fd5b620005f083828462000935565b50505092915050565b600080600080600060a086880312156200061257600080fd5b600086015167ffffffffffffffff8111156200062d57600080fd5b6200063b888289016200059d565b955050602086015167ffffffffffffffff8111156200065957600080fd5b62000667888289016200059d565b94505060406200067a8882890162000586565b935050606086015167ffffffffffffffff8111156200069857600080fd5b620006a6888289016200059d565b925050608086015167ffffffffffffffff811115620006c457600080fd5b620006d2888289016200059d565b9150509295509295909350565b6000620006ee601f83620008e5565b91507f526f6c65733a206163636f756e7420616c72656164792068617320726f6c65006000830152602082019050919050565b600062000730601c83620008e5565b91507f4552433136353a20696e76616c696420696e74657266616365206964000000006000830152602082019050919050565b600062000772602283620008e5565b91507f526f6c65733a206163636f756e7420697320746865207a65726f20616464726560008301527f73730000000000000000000000000000000000000000000000000000000000006020830152604082019050919050565b6000620007da601183620008f6565b91507f4d494e545f574954485f414444524553530000000000000000000000000000006000830152601182019050919050565b60006200081a82620007cb565b9150819050919050565b600060208201905081810360008301526200083f81620006df565b9050919050565b60006020820190508181036000830152620008618162000721565b9050919050565b60006020820190508181036000830152620008838162000763565b9050919050565b6000604051905081810181811067ffffffffffffffff82111715620008ae57600080fd5b8060405250919050565b600067ffffffffffffffff821115620008d057600080fd5b601f19601f8301169050602081019050919050565b600082825260208201905092915050565b600081905092915050565b60006200090e8262000915565b9050919050565b600073ffffffffffffffffffffffffffffffffffffffff82169050919050565b60005b838110156200095557808201518184015260208101905062000938565b8381111562000965576000848401525b50505050565b620009768162000901565b81146200098257600080fd5b50565b61485080620009956000396000f3fe608060405234801561001057600080fd5b50600436106101c35760003560e01c806395d89b41116100f9578063e5c8b03d11610097578063eb12d61e11610071578063eb12d61e14610519578063f242432a14610535578063f2fde38b14610551578063f5298aca1461056d576101c3565b8063e5c8b03d146104c1578063e8a3d485146104cb578063e985e9c5146104e9576101c3565b8063b9c4d9fb116100d3578063b9c4d9fb14610427578063c0ac998314610457578063c6bf326214610475578063cd53d08e14610491576101c3565b806395d89b41146103d157806399e0dd7c146103ef578063a22cb4651461040b576101c3565b80634e1273f4116101665780637df73e27116101405780637df73e27146103495780638da5cb5b146103795780638f32d59b14610397578063938e3d7b146103b5576101c3565b80634e1273f4146102de5780636308f1cd1461030e578063715018a61461033f576101c3565b80630e316ab7116101a25780630e316ab7146102465780630e89341c146102625780630ebd4c7f146102925780632eb2c2d6146102c2576101c3565b8062fdd58e146101c857806301ffc9a7146101f857806306fdde0314610228575b600080fd5b6101e260048036036101dd919081019061337a565b610589565b6040516101ef9190614425565b60405180910390f35b610212600480360361020d919081019061347a565b6105e4565b60405161021f9190614121565b60405180910390f35b61023061064b565b60405161023d9190614181565b60405180910390f35b610260600480360361025b919081019061317b565b6106e9565b005b61027c6004803603610277919081019061350d565b61073c565b60405161028991906141a3565b60405180910390f35b6102ac60048036036102a7919081019061350d565b61074e565b6040516102b991906140ff565b60405180910390f35b6102dc60048036036102d791908101906131e0565b6108a8565b005b6102f860048036036102f39190810190613405565b610da6565b60405161030591906140ff565b60405180910390f35b61032860048036036103239190810190613536565b610eb5565b604051610336929190613fb7565b60405180910390f35b610347610f13565b005b610363600480360361035e919081019061317b565b61101b565b6040516103709190614121565b60405180910390f35b610381611038565b60405161038e9190613f9c565b60405180910390f35b61039f611062565b6040516103ac9190614121565b60405180910390f35b6103cf60048036036103ca91908101906134cc565b6110c1565b005b6103d9611114565b6040516103e69190614181565b60405180910390f35b610409600480360361040491908101906134cc565b6111b2565b005b6104256004803603610420919081019061333e565b611205565b005b610441600480360361043c919081019061350d565b611302565b60405161044e91906140a2565b60405180910390f35b61045f61148a565b60405161046c9190614181565b60405180910390f35b61048f600480360361048a9190810190613572565b611528565b005b6104ab60048036036104a6919081019061350d565b6115fb565b6040516104b89190613f9c565b60405180910390f35b6104c961162e565b005b6104d3611640565b6040516104e09190614181565b60405180910390f35b61050360048036036104fe91908101906131a4565b6116de565b6040516105109190614121565b60405180910390f35b610533600480360361052e919081019061317b565b611772565b005b61054f600480360361054a91908101906132ac565b6117c5565b005b61056b6004803603610566919081019061317b565b611ba6565b005b610587600480360361058291908101906133b6565b611bf9565b005b60006006600083815260200190815260200160002060008473ffffffffffffffffffffffffffffffffffffffff1673ffffffffffffffffffffffffffffffffffffffff16815260200190815260200160002054905092915050565b6000806000837bffffffffffffffffffffffffffffffffffffffffffffffffffffffff19167bffffffffffffffffffffffffffffffffffffffffffffffffffffffff1916815260200190815260200160002060009054906101000a900460ff169050919050565b600a8054600181600116156101000203166002900480601f0160208091040260200160405190810160405280929190818152602001828054600181600116156101000203166002900480156106e15780601f106106b6576101008083540402835291602001916106e1565b820191906000526020600020905b8154815290600101906020018083116106c457829003601f168201915b505050505081565b6106f1611062565b610730576040517f08c379a0000000000000000000000000000000000000000000000000000000008152600401610727906142e5565b60405180910390fd5b61073981611e3a565b50565b606061074782611e94565b9050919050565b60608060096000848152602001908152602001600020805480602002602001604051908101604052809291908181526020016000905b8282101561081657838290600052602060002090600202016040518060400160405290816000820160009054906101000a900473ffffffffffffffffffffffffffffffffffffffff1673ffffffffffffffffffffffffffffffffffffffff1673ffffffffffffffffffffffffffffffffffffffff16815260200160018201548152505081526020019060010190610784565b5050505090506060815160405190808252806020026020018201604052801561084e5781602001602082028038833980820191505090505b50905060008090505b825181101561089d5782818151811061086c57fe5b60200260200101516020015182828151811061088457fe5b6020026020010181815250508080600101915050610857565b508092505050919050565b600073ffffffffffffffffffffffffffffffffffffffff168773ffffffffffffffffffffffffffffffffffffffff161415610918576040517f08c379a000000000000000000000000000000000000000000000000000000000815260040161090f90614245565b60405180910390fd5b838390508686905014610960576040517f08c379a000000000000000000000000000000000000000000000000000000000815260040161095790614365565b60405180910390fd5b3373ffffffffffffffffffffffffffffffffffffffff168873ffffffffffffffffffffffffffffffffffffffff161480610a27575060011515600760008a73ffffffffffffffffffffffffffffffffffffffff1673ffffffffffffffffffffffffffffffffffffffff16815260200190815260200160002060003373ffffffffffffffffffffffffffffffffffffffff1673ffffffffffffffffffffffffffffffffffffffff16815260200190815260200160002060009054906101000a900460ff161515145b610a66576040517f08c379a0000000000000000000000000000000000000000000000000000000008152600401610a5d906142a5565b60405180910390fd5b60008090505b86869050811015610c20576000878783818110610a8557fe5b9050602002013590506000868684818110610a9c57fe5b905060200201359050610b08816006600085815260200190815260200160002060008e73ffffffffffffffffffffffffffffffffffffffff1673ffffffffffffffffffffffffffffffffffffffff16815260200190815260200160002054611ff590919063ffffffff16565b6006600084815260200190815260200160002060008d73ffffffffffffffffffffffffffffffffffffffff1673ffffffffffffffffffffffffffffffffffffffff16815260200190815260200160002081905550610bbf6006600084815260200190815260200160002060008c73ffffffffffffffffffffffffffffffffffffffff1673ffffffffffffffffffffffffffffffffffffffff168152602001908152602001600020548261200c90919063ffffffff16565b6006600084815260200190815260200160002060008c73ffffffffffffffffffffffffffffffffffffffff1673ffffffffffffffffffffffffffffffffffffffff168152602001908152602001600020819055505050806001019050610a6c565b508673ffffffffffffffffffffffffffffffffffffffff168873ffffffffffffffffffffffffffffffffffffffff163373ffffffffffffffffffffffffffffffffffffffff167f4a39dc06d4c0dbc64b70af90fd698a233a518aa5d07e595d983b8c0526c8f7fb89898989604051610c9b94939291906140c4565b60405180910390a4610cc28773ffffffffffffffffffffffffffffffffffffffff16612026565b15610d9c57610d9b338989898980806020026020016040519081016040528093929190818152602001838360200280828437600081840152601f19601f82011690508083019250505050505050888880806020026020016040519081016040528093929190818152602001838360200280828437600081840152601f19601f8201169050808301925050505050505087878080601f016020809104026020016040519081016040528093929190818152602001838380828437600081840152601f19601f82011690508083019250505050505050612071565b5b5050505050505050565b6060828290508585905014610dba57600080fd5b606085859050604051908082528060200260200182016040528015610dee5781602001602082028038833980820191505090505b50905060008090505b86869050811015610ea85760066000868684818110610e1257fe5b9050602002013581526020019081526020016000206000888884818110610e3557fe5b9050602002016020610e4a919081019061317b565b73ffffffffffffffffffffffffffffffffffffffff1673ffffffffffffffffffffffffffffffffffffffff16815260200190815260200160002054828281518110610e9157fe5b602002602001018181525050806001019050610df7565b5080915050949350505050565b60096020528160005260406000208181548110610ece57fe5b9060005260206000209060020201600091509150508060000160009054906101000a900473ffffffffffffffffffffffffffffffffffffffff16908060010154905082565b610f1b611062565b610f5a576040517f08c379a0000000000000000000000000000000000000000000000000000000008152600401610f51906142e5565b60405180910390fd5b600073ffffffffffffffffffffffffffffffffffffffff16600160009054906101000a900473ffffffffffffffffffffffffffffffffffffffff1673ffffffffffffffffffffffffffffffffffffffff167f8be0079c531659141344cd1fd0a4f28419497f9722a3daafe3b4186f6b6457e060405160405180910390a36000600160006101000a81548173ffffffffffffffffffffffffffffffffffffffff021916908373ffffffffffffffffffffffffffffffffffffffff160217905550565b600061103182600261219290919063ffffffff16565b9050919050565b6000600160009054906101000a900473ffffffffffffffffffffffffffffffffffffffff16905090565b6000600160009054906101000a900473ffffffffffffffffffffffffffffffffffffffff1673ffffffffffffffffffffffffffffffffffffffff166110a561225a565b73ffffffffffffffffffffffffffffffffffffffff1614905090565b6110c9611062565b611108576040517f08c379a00000000000000000000000000000000000000000000000000000000081526004016110ff906142e5565b60405180910390fd5b61111181612262565b50565b600b8054600181600116156101000203166002900480601f0160208091040260200160405190810160405280929190818152602001828054600181600116156101000203166002900480156111aa5780601f1061117f576101008083540402835291602001916111aa565b820191906000526020600020905b81548152906001019060200180831161118d57829003601f168201915b505050505081565b6111ba611062565b6111f9576040517f08c379a00000000000000000000000000000000000000000000000000000000081526004016111f0906142e5565b60405180910390fd5b6112028161227c565b50565b80600760003373ffffffffffffffffffffffffffffffffffffffff1673ffffffffffffffffffffffffffffffffffffffff16815260200190815260200160002060008473ffffffffffffffffffffffffffffffffffffffff1673ffffffffffffffffffffffffffffffffffffffff16815260200190815260200160002060006101000a81548160ff0219169083151502179055508173ffffffffffffffffffffffffffffffffffffffff163373ffffffffffffffffffffffffffffffffffffffff167f17307eab39ab6107e8899845ad3d59bd9653f200f220920489ca2b5937696c31836040516112f69190614121565b60405180910390a35050565b60608060096000848152602001908152602001600020805480602002602001604051908101604052809291908181526020016000905b828210156113ca57838290600052602060002090600202016040518060400160405290816000820160009054906101000a900473ffffffffffffffffffffffffffffffffffffffff1673ffffffffffffffffffffffffffffffffffffffff1673ffffffffffffffffffffffffffffffffffffffff16815260200160018201548152505081526020019060010190611338565b505050509050606081516040519080825280602002602001820160405280156114025781602001602082028038833980820191505090505b50905060008090505b825181101561147f5782818151811061142057fe5b60200260200101516000015182828151811061143857fe5b602002602001019073ffffffffffffffffffffffffffffffffffffffff16908173ffffffffffffffffffffffffffffffffffffffff1681525050808060010191505061140b565b508092505050919050565b60038054600181600116156101000203166002900480601f0160208091040260200160405190810160405280929190818152602001828054600181600116156101000203166002900480156115205780601f106114f557610100808354040283529160200191611520565b820191906000526020600020905b81548152906001019060200180831161150357829003601f168201915b505050505081565b6115a760013089604051602001611540929190613f70565b6040516020818303038152906040528051906020012088888860405160008152602001604052604051611576949392919061413c565b6020604051602081039080840390855afa158015611598573d6000803e3d6000fd5b5050506020604051035161101b565b6115e6576040517f08c379a00000000000000000000000000000000000000000000000000000000081526004016115dd906143e5565b60405180910390fd5b6115f287848484612296565b50505050505050565b60086020528060005260406000206000915054906101000a900473ffffffffffffffffffffffffffffffffffffffff1681565b61163e61163961225a565b611e3a565b565b60058054600181600116156101000203166002900480601f0160208091040260200160405190810160405280929190818152602001828054600181600116156101000203166002900480156116d65780601f106116ab576101008083540402835291602001916116d6565b820191906000526020600020905b8154815290600101906020018083116116b957829003601f168201915b505050505081565b6000600760008473ffffffffffffffffffffffffffffffffffffffff1673ffffffffffffffffffffffffffffffffffffffff16815260200190815260200160002060008373ffffffffffffffffffffffffffffffffffffffff1673ffffffffffffffffffffffffffffffffffffffff16815260200190815260200160002060009054906101000a900460ff16905092915050565b61177a611062565b6117b9576040517f08c379a00000000000000000000000000000000000000000000000000000000081526004016117b0906142e5565b60405180910390fd5b6117c281612813565b50565b600073ffffffffffffffffffffffffffffffffffffffff168573ffffffffffffffffffffffffffffffffffffffff161415611835576040517f08c379a000000000000000000000000000000000000000000000000000000000815260040161182c906143c5565b60405180910390fd5b3373ffffffffffffffffffffffffffffffffffffffff168673ffffffffffffffffffffffffffffffffffffffff1614806118fc575060011515600760008873ffffffffffffffffffffffffffffffffffffffff1673ffffffffffffffffffffffffffffffffffffffff16815260200190815260200160002060003373ffffffffffffffffffffffffffffffffffffffff1673ffffffffffffffffffffffffffffffffffffffff16815260200190815260200160002060009054906101000a900460ff161515145b61193b576040517f08c379a0000000000000000000000000000000000000000000000000000000008152600401611932906142a5565b60405180910390fd5b61199e836006600087815260200190815260200160002060008973ffffffffffffffffffffffffffffffffffffffff1673ffffffffffffffffffffffffffffffffffffffff16815260200190815260200160002054611ff590919063ffffffff16565b6006600086815260200190815260200160002060008873ffffffffffffffffffffffffffffffffffffffff1673ffffffffffffffffffffffffffffffffffffffff16815260200190815260200160002081905550611a556006600086815260200190815260200160002060008773ffffffffffffffffffffffffffffffffffffffff1673ffffffffffffffffffffffffffffffffffffffff168152602001908152602001600020548461200c90919063ffffffff16565b6006600086815260200190815260200160002060008773ffffffffffffffffffffffffffffffffffffffff1673ffffffffffffffffffffffffffffffffffffffff168152602001908152602001600020819055508473ffffffffffffffffffffffffffffffffffffffff168673ffffffffffffffffffffffffffffffffffffffff163373ffffffffffffffffffffffffffffffffffffffff167fc3d58168c5ae7397731d063d5bbf3d657854427343f4c083240f7aacaa2d0f628787604051611b1f929190614485565b60405180910390a4611b468573ffffffffffffffffffffffffffffffffffffffff16612026565b15611b9e57611b9d338787878787878080601f016020809104026020016040519081016040528093929190818152602001838380828437600081840152601f19601f8201169050808301925050505050505061286d565b5b505050505050565b611bae611062565b611bed576040517f08c379a0000000000000000000000000000000000000000000000000000000008152600401611be4906142e5565b60405180910390fd5b611bf68161298e565b50565b3373ffffffffffffffffffffffffffffffffffffffff168373ffffffffffffffffffffffffffffffffffffffff161480611cc0575060011515600760008573ffffffffffffffffffffffffffffffffffffffff1673ffffffffffffffffffffffffffffffffffffffff16815260200190815260200160002060003373ffffffffffffffffffffffffffffffffffffffff1673ffffffffffffffffffffffffffffffffffffffff16815260200190815260200160002060009054906101000a900460ff161515145b611cff576040517f08c379a0000000000000000000000000000000000000000000000000000000008152600401611cf690614285565b60405180910390fd5b611d62816006600085815260200190815260200160002060008673ffffffffffffffffffffffffffffffffffffffff1673ffffffffffffffffffffffffffffffffffffffff16815260200190815260200160002054611ff590919063ffffffff16565b6006600084815260200190815260200160002060008573ffffffffffffffffffffffffffffffffffffffff1673ffffffffffffffffffffffffffffffffffffffff16815260200190815260200160002081905550600073ffffffffffffffffffffffffffffffffffffffff168373ffffffffffffffffffffffffffffffffffffffff163373ffffffffffffffffffffffffffffffffffffffff167fc3d58168c5ae7397731d063d5bbf3d657854427343f4c083240f7aacaa2d0f628585604051611e2d929190614485565b60405180910390a4505050565b611e4e816002612abe90919063ffffffff16565b8073ffffffffffffffffffffffffffffffffffffffff167f3525e22824a8a7df2c9a6029941c824cf95b6447f1e13d5128fd3826d35afe8b60405160405180910390a250565b6060611fee600460008481526020019081526020016000208054600181600116156101000203166002900480601f016020809104026020016040519081016040528092919081815260200182805460018160011615610100020316600290048015611f405780601f10611f1557610100808354040283529160200191611f40565b820191906000526020600020905b815481529060010190602001808311611f2357829003601f168201915b505050505060038054600181600116156101000203166002900480601f016020809104026020016040519081016040528092919081815260200182805460018160011615610100020316600290048015611fdb5780601f10611fb057610100808354040283529160200191611fdb565b820191906000526020600020905b815481529060010190602001808311611fbe57829003601f168201915b5050505050612b6590919063ffffffff16565b9050919050565b60008282111561200157fe5b818303905092915050565b600081830190508281101561201d57fe5b80905092915050565b60008060007fc5d2460186f7233c927e7db2dcc703c0e500b653ca82273b7bfad8045d85a47060001b9050833f915080821415801561206857506000801b8214155b92505050919050565b63bc197c8160e01b7bffffffffffffffffffffffffffffffffffffffffffffffffffffffff19168473ffffffffffffffffffffffffffffffffffffffff1663bc197c8188888787876040518663ffffffff1660e01b81526004016120d9959493929190613fe0565b602060405180830381600087803b1580156120f357600080fd5b505af1158015612107573d6000803e3d6000fd5b505050506040513d601f19601f8201168201806040525061212b91908101906134a3565b7bffffffffffffffffffffffffffffffffffffffffffffffffffffffff19161461218a576040517f08c379a0000000000000000000000000000000000000000000000000000000008152600401612181906142c5565b60405180910390fd5b505050505050565b60008073ffffffffffffffffffffffffffffffffffffffff168273ffffffffffffffffffffffffffffffffffffffff161415612203576040517f08c379a00000000000000000000000000000000000000000000000000000000081526004016121fa90614305565b60405180910390fd5b8260000160008373ffffffffffffffffffffffffffffffffffffffff1673ffffffffffffffffffffffffffffffffffffffff16815260200190815260200160002060009054906101000a900460ff16905092915050565b600033905090565b8060059080519060200190612278929190612e2d565b5050565b8060039080519060200190612292929190612e2d565b5050565b600073ffffffffffffffffffffffffffffffffffffffff166008600086815260200190815260200160002060009054906101000a900473ffffffffffffffffffffffffffffffffffffffff1673ffffffffffffffffffffffffffffffffffffffff1614612338576040517f08c379a000000000000000000000000000000000000000000000000000000000815260040161232f90614325565b60405180910390fd5b600082141561237c576040517f08c379a000000000000000000000000000000000000000000000000000000000815260040161237390614345565b60405180910390fd5b60008151116123c0576040517f08c379a00000000000000000000000000000000000000000000000000000000081526004016123b790614405565b60405180910390fd5b336008600086815260200190815260200160002060006101000a81548173ffffffffffffffffffffffffffffffffffffffff021916908373ffffffffffffffffffffffffffffffffffffffff160217905550606083516040519080825280602002602001820160405280156124445781602001602082028038833980820191505090505b509050606084516040519080825280602002602001820160405280156124795781602001602082028038833980820191505090505b50905060008090505b85518110156126ae57600073ffffffffffffffffffffffffffffffffffffffff168682815181106124af57fe5b60200260200101516000015173ffffffffffffffffffffffffffffffffffffffff161415612512576040517f08c379a000000000000000000000000000000000000000000000000000000000815260040161250990614385565b60405180910390fd5b600086828151811061252057fe5b602002602001015160200151141561256d576040517f08c379a0000000000000000000000000000000000000000000000000000000008152600401612564906141c5565b60405180910390fd5b6009600088815260200190815260200160002086828151811061258c57fe5b60200260200101519080600181540180825580915050906001820390600052602060002090600202016000909192909190915060008201518160000160006101000a81548173ffffffffffffffffffffffffffffffffffffffff021916908373ffffffffffffffffffffffffffffffffffffffff1602179055506020820151816001015550505085818151811061261f57fe5b60200260200101516000015183828151811061263757fe5b602002602001019073ffffffffffffffffffffffffffffffffffffffff16908173ffffffffffffffffffffffffffffffffffffffff168152505085818151811061267d57fe5b60200260200101516020015182828151811061269557fe5b6020026020010181815250508080600101915050612482565b506000855111156126f5577f99aba1d63749cfd5ad1afda7c4663840924d54eb5f005bbbeadedc6ec13674b28683836040516126ec93929190614440565b60405180910390a15b836006600088815260200190815260200160002060003373ffffffffffffffffffffffffffffffffffffffff1673ffffffffffffffffffffffffffffffffffffffff168152602001908152602001600020819055506127548684612ca8565b3373ffffffffffffffffffffffffffffffffffffffff16600073ffffffffffffffffffffffffffffffffffffffff163373ffffffffffffffffffffffffffffffffffffffff167fc3d58168c5ae7397731d063d5bbf3d657854427343f4c083240f7aacaa2d0f6289886040516127cb929190614485565b60405180910390a4857f6bb7ff708619ba0610cba295a58592e0451dee2622938c8755667688daf3529b8460405161280391906141a3565b60405180910390a2505050505050565b612827816002612d5990919063ffffffff16565b8073ffffffffffffffffffffffffffffffffffffffff167f47d1c22a25bb3a5d4e481b9b1e6944c2eade3181a0a20b495ed61d35b5323f2460405160405180910390a250565b63f23a6e6160e01b7bffffffffffffffffffffffffffffffffffffffffffffffffffffffff19168473ffffffffffffffffffffffffffffffffffffffff1663f23a6e6188888787876040518663ffffffff1660e01b81526004016128d5959493929190614048565b602060405180830381600087803b1580156128ef57600080fd5b505af1158015612903573d6000803e3d6000fd5b505050506040513d601f19601f8201168201806040525061292791908101906134a3565b7bffffffffffffffffffffffffffffffffffffffffffffffffffffffff191614612986576040517f08c379a000000000000000000000000000000000000000000000000000000000815260040161297d906143a5565b60405180910390fd5b505050505050565b600073ffffffffffffffffffffffffffffffffffffffff168173ffffffffffffffffffffffffffffffffffffffff1614156129fe576040517f08c379a00000000000000000000000000000000000000000000000000000000081526004016129f590614205565b60405180910390fd5b8073ffffffffffffffffffffffffffffffffffffffff16600160009054906101000a900473ffffffffffffffffffffffffffffffffffffffff1673ffffffffffffffffffffffffffffffffffffffff167f8be0079c531659141344cd1fd0a4f28419497f9722a3daafe3b4186f6b6457e060405160405180910390a380600160006101000a81548173ffffffffffffffffffffffffffffffffffffffff021916908373ffffffffffffffffffffffffffffffffffffffff16021790555050565b612ac88282612192565b612b07576040517f08c379a0000000000000000000000000000000000000000000000000000000008152600401612afe90614265565b60405180910390fd5b60008260000160008373ffffffffffffffffffffffffffffffffffffffff1673ffffffffffffffffffffffffffffffffffffffff16815260200190815260200160002060006101000a81548160ff0219169083151502179055505050565b6060808390506060839050606081518351016040519080825280601f01601f191660200182016040528015612ba95781602001600182028038833980820191505090505b509050600080905060008090505b8451811015612c2557848181518110612bcc57fe5b602001015160f81c60f81b838380600101945081518110612be957fe5b60200101907effffffffffffffffffffffffffffffffffffffffffffffffffffffffffffff1916908160001a9053508080600101915050612bb7565b5060008090505b8351811015612c9a57838181518110612c4157fe5b602001015160f81c60f81b838380600101945081518110612c5e57fe5b60200101907effffffffffffffffffffffffffffffffffffffffffffffffffffffffffffff1916908160001a9053508080600101915050612c2c565b508194505050505092915050565b600073ffffffffffffffffffffffffffffffffffffffff166008600084815260200190815260200160002060009054906101000a900473ffffffffffffffffffffffffffffffffffffffff1673ffffffffffffffffffffffffffffffffffffffff161415612d4b576040517f08c379a0000000000000000000000000000000000000000000000000000000008152600401612d4290614225565b60405180910390fd5b612d558282612e01565b5050565b612d638282612192565b15612da3576040517f08c379a0000000000000000000000000000000000000000000000000000000008152600401612d9a906141e5565b60405180910390fd5b60018260000160008373ffffffffffffffffffffffffffffffffffffffff1673ffffffffffffffffffffffffffffffffffffffff16815260200190815260200160002060006101000a81548160ff0219169083151502179055505050565b80600460008481526020019081526020016000209080519060200190612e28929190612e2d565b505050565b828054600181600116156101000203166002900490600052602060002090601f016020900481019282601f10612e6e57805160ff1916838001178555612e9c565b82800160010185558215612e9c579182015b82811115612e9b578251825591602001919060010190612e80565b5b509050612ea99190612ead565b5090565b612ecf91905b80821115612ecb576000816000905550600101612eb3565b5090565b90565b600081359050612ee18161476c565b92915050565b600081359050612ef681614783565b92915050565b60008083601f840112612f0e57600080fd5b8235905067ffffffffffffffff811115612f2757600080fd5b602083019150836020820283011115612f3f57600080fd5b9250929050565b600082601f830112612f5757600080fd5b8135612f6a612f65826144db565b6144ae565b91508181835260208401935060208101905083856040840282011115612f8f57600080fd5b60005b83811015612fbf5781612fa58882613105565b845260208401935060408301925050600181019050612f92565b5050505092915050565b60008083601f840112612fdb57600080fd5b8235905067ffffffffffffffff811115612ff457600080fd5b60208301915083602082028301111561300c57600080fd5b9250929050565b6000813590506130228161479a565b92915050565b600081359050613037816147b1565b92915050565b60008135905061304c816147c8565b92915050565b600081519050613061816147c8565b92915050565b60008083601f84011261307957600080fd5b8235905067ffffffffffffffff81111561309257600080fd5b6020830191508360018202830111156130aa57600080fd5b9250929050565b600082601f8301126130c257600080fd5b81356130d56130d082614503565b6144ae565b915080825260208301602083018583830111156130f157600080fd5b6130fc8382846146de565b50505092915050565b60006040828403121561311757600080fd5b61312160406144ae565b9050600061313184828501612ee7565b600083015250602061314584828501613151565b60208301525092915050565b600081359050613160816147df565b92915050565b600081359050613175816147f6565b92915050565b60006020828403121561318d57600080fd5b600061319b84828501612ed2565b91505092915050565b600080604083850312156131b757600080fd5b60006131c585828601612ed2565b92505060206131d685828601612ed2565b9150509250929050565b60008060008060008060008060a0898b0312156131fc57600080fd5b600061320a8b828c01612ed2565b985050602061321b8b828c01612ed2565b975050604089013567ffffffffffffffff81111561323857600080fd5b6132448b828c01612fc9565b9650965050606089013567ffffffffffffffff81111561326357600080fd5b61326f8b828c01612fc9565b9450945050608089013567ffffffffffffffff81111561328e57600080fd5b61329a8b828c01613067565b92509250509295985092959890939650565b60008060008060008060a087890312156132c557600080fd5b60006132d389828a01612ed2565b96505060206132e489828a01612ed2565b95505060406132f589828a01613151565b945050606061330689828a01613151565b935050608087013567ffffffffffffffff81111561332357600080fd5b61332f89828a01613067565b92509250509295509295509295565b6000806040838503121561335157600080fd5b600061335f85828601612ed2565b925050602061337085828601613013565b9150509250929050565b6000806040838503121561338d57600080fd5b600061339b85828601612ed2565b92505060206133ac85828601613151565b9150509250929050565b6000806000606084860312156133cb57600080fd5b60006133d986828701612ed2565b93505060206133ea86828701613151565b92505060406133fb86828701613151565b9150509250925092565b6000806000806040858703121561341b57600080fd5b600085013567ffffffffffffffff81111561343557600080fd5b61344187828801612efc565b9450945050602085013567ffffffffffffffff81111561346057600080fd5b61346c87828801612fc9565b925092505092959194509250565b60006020828403121561348c57600080fd5b600061349a8482850161303d565b91505092915050565b6000602082840312156134b557600080fd5b60006134c384828501613052565b91505092915050565b6000602082840312156134de57600080fd5b600082013567ffffffffffffffff8111156134f857600080fd5b613504848285016130b1565b91505092915050565b60006020828403121561351f57600080fd5b600061352d84828501613151565b91505092915050565b6000806040838503121561354957600080fd5b600061355785828601613151565b925050602061356885828601613151565b9150509250929050565b600080600080600080600060e0888a03121561358d57600080fd5b600061359b8a828b01613151565b97505060206135ac8a828b01613166565b96505060406135bd8a828b01613028565b95505060606135ce8a828b01613028565b945050608088013567ffffffffffffffff8111156135eb57600080fd5b6135f78a828b01612f46565b93505060a06136088a828b01613151565b92505060c088013567ffffffffffffffff81111561362557600080fd5b6136318a828b016130b1565b91505092959891949750929550565b600061364c8383613688565b60208301905092915050565b600061366483836136a6565b60208301905092915050565b600061367c8383613f2c565b60208301905092915050565b6136918161462f565b82525050565b6136a08161462f565b82525050565b6136af8161461d565b82525050565b6136be8161461d565b82525050565b60006136cf8261455f565b6136d981856145c8565b93506136e48361452f565b8060005b838110156137155781516136fc8882613658565b9750613707836145a1565b9250506001810190506136e8565b5085935050505092915050565b600061372d8261456a565b61373781856145d9565b93506137428361453f565b8060005b8381101561377357815161375a8882613640565b9750613765836145ae565b925050600181019050613746565b5085935050505092915050565b600061378c83856145ea565b93507f07ffffffffffffffffffffffffffffffffffffffffffffffffffffffffffffff8311156137bb57600080fd5b6020830292506137cc8385846146de565b82840190509392505050565b60006137e382614575565b6137ed81856145ea565b93506137f88361454f565b8060005b838110156138295781516138108882613670565b975061381b836145bb565b9250506001810190506137fc565b5085935050505092915050565b61383f81614641565b82525050565b61384e8161464d565b82525050565b600061385f82614580565b61386981856145fb565b93506138798185602086016146ed565b6138828161474e565b840191505092915050565b61389e613899826146ba565b614720565b82525050565b60006138af82614596565b6138b9818561460c565b93506138c98185602086016146ed565b6138d28161474e565b840191505092915050565b60006138e88261458b565b6138f2818561460c565b93506139028185602086016146ed565b61390b8161474e565b840191505092915050565b6000613923601c8361460c565b91507f4665652076616c75652073686f756c6420626520706f736974697665000000006000830152602082019050919050565b6000613963601f8361460c565b91507f526f6c65733a206163636f756e7420616c72656164792068617320726f6c65006000830152602082019050919050565b60006139a360268361460c565b91507f4f776e61626c653a206e6577206f776e657220697320746865207a65726f206160008301527f64647265737300000000000000000000000000000000000000000000000000006020830152604082019050919050565b6000613a0960208361460c565b91507f5f736574546f6b656e5552493a20546f6b656e2073686f756c642065786973746000830152602082019050919050565b6000613a4960258361460c565b91507f64657374696e6174696f6e2061646472657373206d757374206265206e6f6e2d60008301527f7a65726f2e0000000000000000000000000000000000000000000000000000006020830152604082019050919050565b6000613aaf60218361460c565b91507f526f6c65733a206163636f756e7420646f6573206e6f74206861766520726f6c60008301527f65000000000000000000000000000000000000000000000000000000000000006020830152604082019050919050565b6000613b15602b8361460c565b91507f4e656564206f70657261746f7220617070726f76616c20666f7220337264207060008301527f61727479206275726e732e0000000000000000000000000000000000000000006020830152604082019050919050565b6000613b7b602f8361460c565b91507f4e656564206f70657261746f7220617070726f76616c20666f7220337264207060008301527f61727479207472616e73666572732e00000000000000000000000000000000006020830152604082019050919050565b6000613be1603e8361460c565b91507f636f6e74726163742072657475726e656420616e20756e6b6e6f776e2076616c60008301527f75652066726f6d206f6e455243313135354261746368526563656976656400006020830152604082019050919050565b6000613c4760208361460c565b91507f4f776e61626c653a2063616c6c6572206973206e6f7420746865206f776e65726000830152602082019050919050565b6000613c8760228361460c565b91507f526f6c65733a206163636f756e7420697320746865207a65726f20616464726560008301527f73730000000000000000000000000000000000000000000000000000000000006020830152604082019050919050565b6000613ced60178361460c565b91507f546f6b656e20697320616c7265616479206d696e7465640000000000000000006000830152602082019050919050565b6000613d2d60198361460c565b91507f537570706c792073686f756c6420626520706f736974697665000000000000006000830152602082019050919050565b6000613d6d60298361460c565b91507f5f69647320616e64205f76616c756573206172726179206c656e676874206d7560008301527f7374206d617463682e00000000000000000000000000000000000000000000006020830152604082019050919050565b6000613dd3601b8361460c565b91507f526563697069656e742073686f756c642062652070726573656e7400000000006000830152602082019050919050565b6000613e1360398361460c565b91507f636f6e74726163742072657475726e656420616e20756e6b6e6f776e2076616c60008301527f75652066726f6d206f6e455243313135355265636569766564000000000000006020830152604082019050919050565b6000613e7960158361460c565b91507f5f746f206d757374206265206e6f6e2d7a65726f2e00000000000000000000006000830152602082019050919050565b6000613eb9601a8361460c565b91507f7369676e65722073686f756c64207369676e20746f6b656e49640000000000006000830152602082019050919050565b6000613ef960118361460c565b91507f7572692073686f756c64206265207365740000000000000000000000000000006000830152602082019050919050565b613f35816146a3565b82525050565b613f44816146a3565b82525050565b613f5b613f56826146a3565b614744565b82525050565b613f6a816146ad565b82525050565b6000613f7c828561388d565b601482019150613f8c8284613f4a565b6020820191508190509392505050565b6000602082019050613fb160008301846136b5565b92915050565b6000604082019050613fcc6000830185613697565b613fd96020830184613f3b565b9392505050565b600060a082019050613ff560008301886136b5565b61400260208301876136b5565b818103604083015261401481866137d8565b9050818103606083015261402881856137d8565b9050818103608083015261403c8184613854565b90509695505050505050565b600060a08201905061405d60008301886136b5565b61406a60208301876136b5565b6140776040830186613f3b565b6140846060830185613f3b565b81810360808301526140968184613854565b90509695505050505050565b600060208201905081810360008301526140bc8184613722565b905092915050565b600060408201905081810360008301526140df818688613780565b905081810360208301526140f4818486613780565b905095945050505050565b6000602082019050818103600083015261411981846137d8565b905092915050565b60006020820190506141366000830184613836565b92915050565b60006080820190506141516000830187613845565b61415e6020830186613f61565b61416b6040830185613845565b6141786060830184613845565b95945050505050565b6000602082019050818103600083015261419b81846138dd565b905092915050565b600060208201905081810360008301526141bd81846138a4565b905092915050565b600060208201905081810360008301526141de81613916565b9050919050565b600060208201905081810360008301526141fe81613956565b9050919050565b6000602082019050818103600083015261421e81613996565b9050919050565b6000602082019050818103600083015261423e816139fc565b9050919050565b6000602082019050818103600083015261425e81613a3c565b9050919050565b6000602082019050818103600083015261427e81613aa2565b9050919050565b6000602082019050818103600083015261429e81613b08565b9050919050565b600060208201905081810360008301526142be81613b6e565b9050919050565b600060208201905081810360008301526142de81613bd4565b9050919050565b600060208201905081810360008301526142fe81613c3a565b9050919050565b6000602082019050818103600083015261431e81613c7a565b9050919050565b6000602082019050818103600083015261433e81613ce0565b9050919050565b6000602082019050818103600083015261435e81613d20565b9050919050565b6000602082019050818103600083015261437e81613d60565b9050919050565b6000602082019050818103600083015261439e81613dc6565b9050919050565b600060208201905081810360008301526143be81613e06565b9050919050565b600060208201905081810360008301526143de81613e6c565b9050919050565b600060208201905081810360008301526143fe81613eac565b9050919050565b6000602082019050818103600083015261441e81613eec565b9050919050565b600060208201905061443a6000830184613f3b565b92915050565b60006060820190506144556000830186613f3b565b818103602083015261446781856136c4565b9050818103604083015261447b81846137d8565b9050949350505050565b600060408201905061449a6000830185613f3b565b6144a76020830184613f3b565b9392505050565b6000604051905081810181811067ffffffffffffffff821117156144d157600080fd5b8060405250919050565b600067ffffffffffffffff8211156144f257600080fd5b602082029050602081019050919050565b600067ffffffffffffffff82111561451a57600080fd5b601f19601f8301169050602081019050919050565b6000819050602082019050919050565b6000819050602082019050919050565b6000819050602082019050919050565b600081519050919050565b600081519050919050565b600081519050919050565b600081519050919050565b600081519050919050565b600081519050919050565b6000602082019050919050565b6000602082019050919050565b6000602082019050919050565b600082825260208201905092915050565b600082825260208201905092915050565b600082825260208201905092915050565b600082825260208201905092915050565b600082825260208201905092915050565b600061462882614683565b9050919050565b600061463a82614683565b9050919050565b60008115159050919050565b6000819050919050565b60007fffffffff0000000000000000000000000000000000000000000000000000000082169050919050565b600073ffffffffffffffffffffffffffffffffffffffff82169050919050565b6000819050919050565b600060ff82169050919050565b60006146c5826146cc565b9050919050565b60006146d782614683565b9050919050565b82818337600083830152505050565b60005b8381101561470b5780820151818401526020810190506146f0565b8381111561471a576000848401525b50505050565b600061472b82614732565b9050919050565b600061473d8261475f565b9050919050565b6000819050919050565b6000601f19601f8301169050919050565b60008160601b9050919050565b6147758161461d565b811461478057600080fd5b50565b61478c8161462f565b811461479757600080fd5b50565b6147a381614641565b81146147ae57600080fd5b50565b6147ba8161464d565b81146147c557600080fd5b50565b6147d181614657565b81146147dc57600080fd5b50565b6147e8816146a3565b81146147f357600080fd5b50565b6147ff816146ad565b811461480a57600080fd5b5056fea365627a7a7231582085c0fe76377a26c3d87ff121c551d65d5c99f2566fd4533516052f2a12b885596c6578706572696d656e74616cf564736f6c63430005110040",
  "source": "pragma solidity ^0.5.0;\r\npragma experimental ABIEncoderV2;\r\n\r\nimport './Ownable.sol';\r\nimport './SignerRole.sol';\r\nimport './ERC1155Base.sol';\r\n\r\ncontract BrandonToken is Ownable, SignerRole, ERC1155Base {\r\n    string public name;\r\n    string public symbol;\r\n\r\n    constructor(string memory _name, string memory _symbol, address signer, string memory contractURI, string memory tokenURIPrefix) ERC1155Base(contractURI, tokenURIPrefix) public {\r\n        name = _name;\r\n        symbol = _symbol;\r\n\r\n        _addSigner(signer);\r\n        _registerInterface(bytes4(keccak256('MINT_WITH_ADDRESS')));\r\n    }\r\n\r\n    function addSigner(address account) public onlyOwner {\r\n        _addSigner(account);\r\n    }\r\n\r\n    function removeSigner(address account) public onlyOwner {\r\n        _removeSigner(account);\r\n    }\r\n\r\n    function mint(uint256 id, uint8 v, bytes32 r, bytes32 s, Fee[] memory fees, uint256 supply, string memory uri) public {\r\n        require(isSigner(ecrecover(keccak256(abi.encodePacked(this, id)), v, r, s)), \"signer should sign tokenId\");\r\n        _mint(id, fees, supply, uri);\r\n    }\r\n}",
  "sourcePath": "A:/project_2021/0422-NFT-Marketplace/work/BrandonToken-NFT/contracts/BrandonToken.sol",
  "compiler": {
    "name": "solc",
    "version": "0.5.17+commit.d19bba13.Emscripten.clang"
  },
  "schemaVersion": "3.3.4",
  "updatedAt": "2021-05-10T08:43:44.618Z",
  "devdoc": {
    "methods": {
      "balanceOf(address,uint256)": {
        "params": {
          "_id": "ID of the Token",
          "_owner": "The address of the token holder"
        },
        "return": "The _owner's balance of the Token type requested"
      },
      "balanceOfBatch(address[],uint256[])": {
        "params": {
          "_ids": "ID of the Tokens",
          "_owners": "The addresses of the token holders"
        },
        "return": "The _owner's balance of the Token types requested (i.e. balance for each (owner, id) pair)"
      },
      "isApprovedForAll(address,address)": {
        "params": {
          "_operator": "Address of authorized operator",
          "_owner": "The owner of the Tokens"
        },
        "return": "True if the operator is approved, false if not"
      },
      "isOwner()": {
        "details": "Returns true if the caller is the current owner."
      },
      "owner()": {
        "details": "Returns the address of the current owner."
      },
      "renounceOwnership()": {
        "details": "Leaves the contract without owner. It will not be possible to call `onlyOwner` functions anymore. Can only be called by the current owner.      * NOTE: Renouncing ownership will leave the contract without an owner, thereby removing any functionality that is only available to the owner."
      },
      "safeBatchTransferFrom(address,address,uint256[],uint256[],bytes)": {
        "details": "Caller must be approved to manage the tokens being transferred out of the `_from` account (see \"Approval\" section of the standard). MUST revert if `_to` is the zero address. MUST revert if length of `_ids` is not the same as length of `_values`. MUST revert if any of the balance(s) of the holder(s) for token(s) in `_ids` is lower than the respective amount(s) in `_values` sent to the recipient. MUST revert on any other error. MUST emit `TransferSingle` or `TransferBatch` event(s) such that all the balance changes are reflected (see \"Safe Transfer Rules\" section of the standard). Balance changes and events MUST follow the ordering of the arrays (_ids[0]/_values[0] before _ids[1]/_values[1], etc). After the above conditions for the transfer(s) in the batch are met, this function MUST check if `_to` is a smart contract (e.g. code size > 0). If so, it MUST call the relevant `ERC1155TokenReceiver` hook(s) on `_to` and act appropriately (see \"Safe Transfer Rules\" section of the standard).",
        "params": {
          "_data": "Additional data with no specified format, MUST be sent unaltered in call to the `ERC1155TokenReceiver` hook(s) on `_to`",
          "_from": "Source address",
          "_ids": "IDs of each token type (order and length must match _values array)",
          "_to": "Target address",
          "_values": "Transfer amounts per token type (order and length must match _ids array)"
        }
      },
      "safeTransferFrom(address,address,uint256,uint256,bytes)": {
        "details": "Caller must be approved to manage the tokens being transferred out of the `_from` account (see \"Approval\" section of the standard). MUST revert if `_to` is the zero address. MUST revert if balance of holder for token `_id` is lower than the `_value` sent. MUST revert on any other error. MUST emit the `TransferSingle` event to reflect the balance change (see \"Safe Transfer Rules\" section of the standard). After the above conditions are met, this function MUST check if `_to` is a smart contract (e.g. code size > 0). If so, it MUST call `onERC1155Received` on `_to` and act appropriately (see \"Safe Transfer Rules\" section of the standard).",
        "params": {
          "_data": "Additional data with no specified format, MUST be sent unaltered in call to `onERC1155Received` on `_to`",
          "_from": "Source address",
          "_id": "ID of the token type",
          "_to": "Target address",
          "_value": "Transfer amount"
        }
      },
      "setApprovalForAll(address,bool)": {
        "details": "MUST emit the ApprovalForAll event on success.",
        "params": {
          "_approved": "True if the operator is approved, false to revoke approval",
          "_operator": "Address to add to the set of authorized operators"
        }
      },
      "supportsInterface(bytes4)": {
        "details": "See {IERC165-supportsInterface}.      * Time complexity O(1), guaranteed to always use less than 30 000 gas."
      },
      "transferOwnership(address)": {
        "details": "Transfers ownership of the contract to a new account (`newOwner`). Can only be called by the current owner."
      }
    }
  },
  "userdoc": {
    "methods": {
      "balanceOf(address,uint256)": {
        "notice": "Get the balance of an account's Tokens."
      },
      "balanceOfBatch(address[],uint256[])": {
        "notice": "Get the balance of multiple account/token pairs"
      },
      "isApprovedForAll(address,address)": {
        "notice": "Queries the approval status of an operator for a given owner."
      },
      "safeBatchTransferFrom(address,address,uint256[],uint256[],bytes)": {
        "notice": "Transfers `_values` amount(s) of `_ids` from the `_from` address to the `_to` address specified (with safety call)."
      },
      "safeTransferFrom(address,address,uint256,uint256,bytes)": {
        "notice": "Transfers `_value` amount of an `_id` from the `_from` address to the `_to` address specified (with safety call)."
      },
      "setApprovalForAll(address,bool)": {
        "notice": "Enable or disable approval for a third party (\"operator\") to manage all of the caller's tokens."
      }
    }
  }
}