{
  "contractName": "ERC1155Metadata_URI",
  "abi": [
    {
      "inputs": [
        {
          "internalType": "string",
          "name": "_tokenURIPrefix",
          "type": "string"
        }
      ],
      "payable": false,
      "stateMutability": "nonpayable",
      "type": "constructor"
    },
    {
      "constant": true,
      "inputs": [],
      "name": "tokenURIPrefix",
      "outputs": [
        {
          "internalType": "string",
          "name": "",
          "type": "string"
        }
      ],
      "payable": false,
      "stateMutability": "view",
      "type": "function"
    },
    {
      "constant": true,
      "inputs": [
        {
          "internalType": "uint256",
          "name": "_id",
          "type": "uint256"
        }
      ],
      "name": "uri",
      "outputs": [
        {
          "internalType": "string",
          "name": "",
          "type": "string"
        }
      ],
      "payable": false,
      "stateMutability": "view",
      "type": "function"
    }
  ],
  "bytecode": "0x608060405234801561001057600080fd5b506040516106af3803806106af8339818101604052602081101561003357600080fd5b810190808051604051939291908464010000000082111561005357600080fd5b8382019150602082018581111561006957600080fd5b825186600182028301116401000000008211171561008657600080fd5b8083526020830192505050908051906020019080838360005b838110156100ba57808201518184015260208101905061009f565b50505050905090810190601f1680156100e75780820380516001836020036101000a031916815260200191505b5060405250505080806000908051906020019061010592919061010d565b5050506101b2565b828054600181600116156101000203166002900490600052602060002090601f016020900481019282601f1061014e57805160ff191683800117855561017c565b8280016001018555821561017c579182015b8281111561017b578251825591602001919060010190610160565b5b509050610189919061018d565b5090565b6101af91905b808211156101ab576000816000905550600101610193565b5090565b90565b6104ee806101c16000396000f3fe608060405234801561001057600080fd5b50600436106100365760003560e01c80630e89341c1461003b578063c0ac9983146100e2575b600080fd5b6100676004803603602081101561005157600080fd5b8101908080359060200190929190505050610165565b6040518080602001828103825283818151815260200191508051906020019080838360005b838110156100a757808201518184015260208101905061008c565b50505050905090810190601f1680156100d45780820380516001836020036101000a031916815260200191505b509250505060405180910390f35b6100ea610177565b6040518080602001828103825283818151815260200191508051906020019080838360005b8381101561012a57808201518184015260208101905061010f565b50505050905090810190601f1680156101575780820380516001836020036101000a031916815260200191505b509250505060405180910390f35b606061017082610215565b9050919050565b60008054600181600116156101000203166002900480601f01602080910402602001604051908101604052809291908181526020018280546001816001161561010002031660029004801561020d5780601f106101e25761010080835404028352916020019161020d565b820191906000526020600020905b8154815290600101906020018083116101f057829003601f168201915b505050505081565b606061036f600160008481526020019081526020016000208054600181600116156101000203166002900480601f0160208091040260200160405190810160405280929190818152602001828054600181600116156101000203166002900480156102c15780601f10610296576101008083540402835291602001916102c1565b820191906000526020600020905b8154815290600101906020018083116102a457829003601f168201915b505050505060008054600181600116156101000203166002900480601f01602080910402602001604051908101604052809291908181526020018280546001816001161561010002031660029004801561035c5780601f106103315761010080835404028352916020019161035c565b820191906000526020600020905b81548152906001019060200180831161033f57829003601f168201915b505050505061037690919063ffffffff16565b9050919050565b6060808390506060839050606081518351016040519080825280601f01601f1916602001820160405280156103ba5781602001600182028038833980820191505090505b509050600080905060008090505b8451811015610436578481815181106103dd57fe5b602001015160f81c60f81b8383806001019450815181106103fa57fe5b60200101907effffffffffffffffffffffffffffffffffffffffffffffffffffffffffffff1916908160001a90535080806001019150506103c8565b5060008090505b83518110156104ab5783818151811061045257fe5b602001015160f81c60f81b83838060010194508151811061046f57fe5b60200101907effffffffffffffffffffffffffffffffffffffffffffffffffffffffffffff1916908160001a905350808060010191505061043d565b50819450505050509291505056fea265627a7a723158206b97a809aae68a9e8bf55511c998c45a327b3d6ae5474174b356de4c57b43a4364736f6c63430005110032",
  "source": "pragma solidity ^0.5.0;\r\n\r\nimport './IERC1155Metadata_URI.sol';\r\nimport './HasTokenURI.sol';\r\n\r\n/**\r\n    Note: The ERC-165 identifier for this interface is 0x0e89341c.\r\n*/\r\ncontract ERC1155Metadata_URI is IERC1155Metadata_URI, HasTokenURI {\r\n\r\n    constructor(string memory _tokenURIPrefix) HasTokenURI(_tokenURIPrefix) public {\r\n\r\n    }\r\n\r\n    function uri(uint256 _id) external view returns (string memory) {\r\n        return _tokenURI(_id);\r\n    }\r\n}",
  "sourcePath": "A:\\project_2021\\0422-NFT-Marketplace\\work\\BrandonToken-NFT\\contracts\\ERC1155Metadata_URI.sol",
  "compiler": {
    "name": "solc",
    "version": "0.5.17+commit.d19bba13.Emscripten.clang"
  },
  "schemaVersion": "3.3.4",
  "updatedAt": "2021-05-10T08:43:44.637Z",
  "devdoc": {
    "methods": {}
  },
  "userdoc": {
    "methods": {},
    "notice": "Note: The ERC-165 identifier for this interface is 0x0e89341c."
  }
}