{
  "contractName": "HasContractURI",
  "abi": [
    {
      "inputs": [
        {
          "internalType": "string",
          "name": "_contractURI",
          "type": "string"
        }
      ],
      "payable": false,
      "stateMutability": "nonpayable",
      "type": "constructor"
    },
    {
      "constant": true,
      "inputs": [],
      "name": "contractURI",
      "outputs": [
        {
          "internalType": "string",
          "name": "",
          "type": "string"
        }
      ],
      "payable": false,
      "stateMutability": "view",
      "type": "function"
    },
    {
      "constant": true,
      "inputs": [
        {
          "internalType": "bytes4",
          "name": "interfaceId",
          "type": "bytes4"
        }
      ],
      "name": "supportsInterface",
      "outputs": [
        {
          "internalType": "bool",
          "name": "",
          "type": "bool"
        }
      ],
      "payable": false,
      "stateMutability": "view",
      "type": "function"
    }
  ],
  "bytecode": "0x608060405234801561001057600080fd5b506040516105503803806105508339818101604052602081101561003357600080fd5b810190808051604051939291908464010000000082111561005357600080fd5b8382019150602082018581111561006957600080fd5b825186600182028301116401000000008211171561008657600080fd5b8083526020830192505050908051906020019080838360005b838110156100ba57808201518184015260208101905061009f565b50505050905090810190601f1680156100e75780820380516001836020036101000a031916815260200191505b506040525050506101046301ffc9a760e01b61013760201b60201c565b806001908051906020019061011a92919061023f565b5061013163e8a3d48560e01b61013760201b60201c565b506102e4565b63ffffffff60e01b817bffffffffffffffffffffffffffffffffffffffffffffffffffffffff191614156101d3576040517f08c379a000000000000000000000000000000000000000000000000000000000815260040180806020018281038252601c8152602001807f4552433136353a20696e76616c696420696e746572666163652069640000000081525060200191505060405180910390fd5b6001600080837bffffffffffffffffffffffffffffffffffffffffffffffffffffffff19167bffffffffffffffffffffffffffffffffffffffffffffffffffffffff1916815260200190815260200160002060006101000a81548160ff02191690831515021790555050565b828054600181600116156101000203166002900490600052602060002090601f016020900481019282601f1061028057805160ff19168380011785556102ae565b828001600101855582156102ae579182015b828111156102ad578251825591602001919060010190610292565b5b5090506102bb91906102bf565b5090565b6102e191905b808211156102dd5760008160009055506001016102c5565b5090565b90565b61025d806102f36000396000f3fe608060405234801561001057600080fd5b50600436106100365760003560e01c806301ffc9a71461003b578063e8a3d485146100a0575b600080fd5b6100866004803603602081101561005157600080fd5b8101908080357bffffffffffffffffffffffffffffffffffffffffffffffffffffffff19169060200190929190505050610123565b604051808215151515815260200191505060405180910390f35b6100a861018a565b6040518080602001828103825283818151815260200191508051906020019080838360005b838110156100e85780820151818401526020810190506100cd565b50505050905090810190601f1680156101155780820380516001836020036101000a031916815260200191505b509250505060405180910390f35b6000806000837bffffffffffffffffffffffffffffffffffffffffffffffffffffffff19167bffffffffffffffffffffffffffffffffffffffffffffffffffffffff1916815260200190815260200160002060009054906101000a900460ff169050919050565b60018054600181600116156101000203166002900480601f0160208091040260200160405190810160405280929190818152602001828054600181600116156101000203166002900480156102205780601f106101f557610100808354040283529160200191610220565b820191906000526020600020905b81548152906001019060200180831161020357829003601f168201915b50505050508156fea265627a7a72315820c1b9364d3c07322499f857e193bf21e7fa77e183523cd1ddc7b37300f8ef18d164736f6c63430005110032",
  "source": "pragma solidity ^0.5.0;\r\n\r\nimport './ERC165.sol';\r\n\r\ncontract HasContractURI is ERC165 {\r\n\r\n    string public contractURI;\r\n\r\n    /*\r\n     * bytes4(keccak256('contractURI()')) == 0xe8a3d485\r\n     */\r\n    bytes4 private constant _INTERFACE_ID_CONTRACT_URI = 0xe8a3d485;\r\n\r\n    constructor(string memory _contractURI) public {\r\n        contractURI = _contractURI;\r\n        _registerInterface(_INTERFACE_ID_CONTRACT_URI);\r\n    }\r\n\r\n    /**\r\n     * @dev Internal function to set the contract URI\r\n     * @param _contractURI string URI prefix to assign\r\n     */\r\n    function _setContractURI(string memory _contractURI) internal {\r\n        contractURI = _contractURI;\r\n    }\r\n}",
  "sourcePath": "A:\\project_2021\\0422-NFT-Marketplace\\work\\BrandonToken-NFT\\contracts\\HasContractURI.sol",
  "compiler": {
    "name": "solc",
    "version": "0.5.17+commit.d19bba13.Emscripten.clang"
  },
  "schemaVersion": "3.3.4",
  "updatedAt": "2021-05-10T08:43:44.640Z",
  "devdoc": {
    "methods": {
      "supportsInterface(bytes4)": {
        "details": "See {IERC165-supportsInterface}.      * Time complexity O(1), guaranteed to always use less than 30 000 gas."
      }
    }
  },
  "userdoc": {
    "methods": {}
  }
}