{
  "contractName": "HasTokenURI",
  "abi": [
    {
      "inputs": [
        {
          "internalType": "string",
          "name": "_tokenURIPrefix",
          "type": "string"
        }
      ],
      "payable": false,
      "stateMutability": "nonpayable",
      "type": "constructor"
    },
    {
      "constant": true,
      "inputs": [],
      "name": "tokenURIPrefix",
      "outputs": [
        {
          "internalType": "string",
          "name": "",
          "type": "string"
        }
      ],
      "payable": false,
      "stateMutability": "view",
      "type": "function"
    }
  ],
  "bytecode": "0x608060405234801561001057600080fd5b506040516103453803806103458339818101604052602081101561003357600080fd5b810190808051604051939291908464010000000082111561005357600080fd5b8382019150602082018581111561006957600080fd5b825186600182028301116401000000008211171561008657600080fd5b8083526020830192505050908051906020019080838360005b838110156100ba57808201518184015260208101905061009f565b50505050905090810190601f1680156100e75780820380516001836020036101000a031916815260200191505b50604052505050806000908051906020019061010492919061010b565b50506101b0565b828054600181600116156101000203166002900490600052602060002090601f016020900481019282601f1061014c57805160ff191683800117855561017a565b8280016001018555821561017a579182015b8281111561017957825182559160200191906001019061015e565b5b509050610187919061018b565b5090565b6101ad91905b808211156101a9576000816000905550600101610191565b5090565b90565b610186806101bf6000396000f3fe608060405234801561001057600080fd5b506004361061002b5760003560e01c8063c0ac998314610030575b600080fd5b6100386100b3565b6040518080602001828103825283818151815260200191508051906020019080838360005b8381101561007857808201518184015260208101905061005d565b50505050905090810190601f1680156100a55780820380516001836020036101000a031916815260200191505b509250505060405180910390f35b60008054600181600116156101000203166002900480601f0160208091040260200160405190810160405280929190818152602001828054600181600116156101000203166002900480156101495780601f1061011e57610100808354040283529160200191610149565b820191906000526020600020905b81548152906001019060200180831161012c57829003601f168201915b50505050508156fea265627a7a723158208690b4ca2849487c7d7ce8505d174f71378a4ec4125ec322ae2c529f85e1c38b64736f6c63430005110032",
  "source": "pragma solidity ^0.5.0;\r\n\r\nimport './StringLibrary.sol';\r\n\r\ncontract HasTokenURI {\r\n    using StringLibrary for string;\r\n\r\n    //Token URI prefix\r\n    string public tokenURIPrefix;\r\n\r\n    // Optional mapping for token URIs\r\n    mapping(uint256 => string) private _tokenURIs;\r\n\r\n    constructor(string memory _tokenURIPrefix) public {\r\n        tokenURIPrefix = _tokenURIPrefix;\r\n    }\r\n\r\n    /**\r\n     * @dev Returns an URI for a given token ID.\r\n     * Throws if the token ID does not exist. May return an empty string.\r\n     * @param tokenId uint256 ID of the token to query\r\n     */\r\n    function _tokenURI(uint256 tokenId) internal view returns (string memory) {\r\n        return tokenURIPrefix.append(_tokenURIs[tokenId]);\r\n    }\r\n\r\n    /**\r\n     * @dev Internal function to set the token URI for a given token.\r\n     * Reverts if the token ID does not exist.\r\n     * @param tokenId uint256 ID of the token to set its URI\r\n     * @param uri string URI to assign\r\n     */\r\n    function _setTokenURI(uint256 tokenId, string memory uri) internal {\r\n        _tokenURIs[tokenId] = uri;\r\n    }\r\n\r\n    /**\r\n     * @dev Internal function to set the token URI prefix.\r\n     * @param _tokenURIPrefix string URI prefix to assign\r\n     */\r\n    function _setTokenURIPrefix(string memory _tokenURIPrefix) internal {\r\n        tokenURIPrefix = _tokenURIPrefix;\r\n    }\r\n\r\n    function _clearTokenURI(uint256 tokenId) internal {\r\n        if (bytes(_tokenURIs[tokenId]).length != 0) {\r\n            delete _tokenURIs[tokenId];\r\n        }\r\n    }\r\n}",
  "sourcePath": "A:\\project_2021\\0422-NFT-Marketplace\\work\\BrandonToken-NFT\\contracts\\HasTokenURI.sol",
  "compiler": {
    "name": "solc",
    "version": "0.5.17+commit.d19bba13.Emscripten.clang"
  },
  "schemaVersion": "3.3.4",
  "updatedAt": "2021-05-10T08:43:44.643Z",
  "devdoc": {
    "methods": {}
  },
  "userdoc": {
    "methods": {}
  }
}